:100000000C940F020C9440020C9440020C94400299
:100010000C9440020C9440020C9440020C94400258
:100020000C9440020C9440020C9440020C94400248
:100030000C9440020C94432F0C9440020C94400208
:100040000C9440020C94962F0C9440020C944002A5
:100050000C9440020C94F52F0C9440020C94792DD2
:100060000C9440020C944D2E0C94232E0C944002C0
:100070000C9440020C9440020C9440020C944002F8
:100080000C9440020C9440020C9440020C944002E8
:100090000C94ED2D0C94C32D0C9440020C94543010
:1000A0000C9440020C9440020C9478310C94400261
:1000B0000C9440020C9440020C9440020C94832E49
:1000C0000C9440020C9440020C9440020C944002A8
:1000D0000C9440020C9440020C9440020C94400298
:1000E0000C9440020C94030F0C943E250C94C02CED
:1000F0000C94E3390C94360D0C94E1310C941C0DE6
:100100000C94912C0C940D0D0C9442250C942F0DF5
:100110000C943C250C94A0030C9482080C943A2572
:100120000C94A4030C94DB030C94070E0C94412D47
:100130000C94B1030C94D62B0C94A22A0C94AB0310
:100140000C9440250C943A0F0C94E12A0C949C03D7
:100150000C9478070C947A070C94222C0C94630D61
:100160000C94BF030C944D2C0C94F70E0C94382572
:100170000C94B5030C94D8070C94D6030C94070F79
:100180000C94D1030C9434250C94E82C0C94C303E8
:100190000C94B6070C9496030C94CD030C944D0F5D
:1001A0000C94A8030C94A7070C940C0D0C947707DF
:1001B0000C94D7030C94BB030C941B250C94CA0716
:1001C0000C943C0F0C941A080C94C9030C94150F52
:1001D0005570646174696E672074696D652E2E2E8A
:1001E00000496E636F727265637420536F6E67208F
:1001F000466F726D61742100416C6C20617474658E
:100200006D707473207765726520756E73756363A6
:1002100065737366756C2E00417474656D7074201F
:10022000746F2073796E6320776974682047505328
:100230002E0044617465206F722054696D65206ED4
:100240006F7420696E2072616E676500426C75651F
:100250003D00475245454E3D005245443D005265E4
:10026000616465642066726F6D20454550524F4D44
:100270000002010053746F7020546573740054655C
:100280006D702E2073656E736F72206E6F742066B2
:100290006F756E642E00475053204E4F5420646596
:1002A0007465637465642100475053206465746508
:1002B00063746564005374617274205465737400D0
:1002C0004E43533331382D382048563531323220A1
:1002D0006F7220485635323232004669726D77614E
:1002E00072652076657273696F6E3A20004661759B
:1002F0006C7479205254432100000021002400270F
:10030000002A002D00300033000101000004010725
:10031000010A0100000A0B02090C0D0E0807030474
:1003200001000000000000000000000000000000CC
:1003300000000000000000000000000000000012AB
:10034000111000000000000000000000000000008C
:10035000000000000000000000000022002500282E
:10036000002B002E003100340002010000050108BE
:10037000010B01000020002300260029002C002F83
:100380000032000001000003010601090105050516
:1003900005070508080808020202020A0A080804FC
:1003A000040404010101010101010103030303032A
:1003B000030303040707070C0C0C0C0C0C0C0C02B9
:1003C00002020206060606060606060B0B0B0B0BC0
:1003D0000B0B0B01021020200808102040102040B9
:1003E00080020102010804020101020408102040F9
:1003F0008080402010080402018004020180402017
:10040000100804020108040201010204081020403F
:1004100080010204081020408000E131E3391124FA
:100420001FBECFEFD1E2DEBFCDBF00E00CBF2AE0A0
:10043000AAE4B5E001C01D92A337B207E1F715E0C9
:10044000A0E0B2E0EAE9FEE700E00BBF02C00790DF
:100450000D92AA34B107D9F712E0CEE0D2E000E065
:1004600006C021970109802FFE010E940E3DCD306C
:10047000D10780E00807A9F70E9478330C943B3F2E
:100480000C9400008F929F92AF92BF92CF92DF9216
:10049000EF92FF92CF932091C3093091C409821744
:1004A0009307E8F54B01AA24BB24C82DC52ED62EF0
:1004B000E72EFF24BC2DA42F2091C909222361F02F
:1004C000829E40011124C92D2C9D60011124BD2D57
:1004D000249FF0011124AF2FE091CF09E090CA09C9
:1004E000F090CB093091CC09E31323C09C01220F7B
:1004F000331F820F931F8E0D9F1DE091CC09E80FD3
:10050000F92FF11DC083E091CD09E80FF92FF11DFE
:10051000B0832091CE09820F911DFC01A083CF9161
:10052000FF90EF90DF90CF90BF90AF909F908F9013
:100530000895880F991F880F991F8E0D9F1D472FB3
:10054000552766277727222349F030E0249F700142
:10055000259FF00C349FF00C11244F2DE80FF92F3C
:10056000F11D4083CACF8CBD9DBD08958091280A9E
:10057000E091290AF0912A0AF8949181982B9183AD
:100580002281382F309523232283A7E0B0E01197F2
:10059000F1F7918193239183A3E2B0E01197F1F7F2
:1005A00090817894EFECF0E03197F1F7982381E0B7
:1005B00009F480E008959091280AE091290AF091C9
:1005C0002A0A292F209580FF14C0F8948281822363
:1005D00082838181892B8183A3E2B0E01197F1F7B7
:1005E0008281982B9283789487ED90E00197F1F7C0
:1005F0000895F8948281822382838181892B81836B
:10060000AFEFB0E01197F1F78281982B9283789445
:100610008FE090E0EBCF0F931F93CF93DF93082FE2
:10062000C8E0D0E011E081E0902F912309F480E050
:100630000E94DB02110F2197B1F7F894E091290A8B
:10064000F0912A0A91818091280A809598239183BC
:10065000E091290AF0912A0A928189238283789471
:10066000DF91CF911F910F9108958091280AE09119
:10067000290AF0912A0AF8949181282F2095922333
:10068000918378943DE743E050E0315029F1DA015D
:100690001197F1F790819823C1F3F89492819223F6
:1006A00092839181982B91837894ABE7B7E011976F
:1006B000F1F7F894918192239183A3E1B1E011972E
:1006C000F1F79081982381E009F080E07894E3E6E7
:1006D000F6E03197F1F7089580E0089591E0909366
:1006E0007707809399071092780710929A070895D8
:1006F0008150823108F05AC0E82FF0E08827EC578B
:10070000FC4F8F4F0C940E3DA403A80396039C034B
:10071000A003D603AB03B103B503BB03BF03C303FD
:10072000C903CD03D603D103D703DB038091800037
:100730008F77809380000895809180008F7DF9CF1E
:1007400080918000877FF5CF84B58F7784BD089531
:1007500084B58F7DFBCF8091B0008F778093B00000
:1007600008958091B0008F7DF9CF809190008F77B0
:10077000809390000895809190008F7DF9CF8091B3
:100780009000877FF5CF8091A0008F778093A000A5
:1007900008958091A0008F7DF9CF8091A000877F80
:1007A000F5CF809120018F7780932001089580916B
:1007B00020018F7DF9CF80912001877FF5CFCF93E6
:1007C000DF93282F30E0F901ED5EFC4F8491F901B1
:1007D000ED52FC4FD491F901E357FC4FC491CC2367
:1007E000A1F081110E947803EC2FF0E0EE0FFF1FC3
:1007F000ED58FC4FA591B491EC91ED2381E090E090
:1008000009F480E0DF91CF91089580E090E0FACF85
:100810001F93CF93DF93282F30E0F901ED5EFC4F5B
:100820008491F901ED52FC4FD491F901E357FC4F4B
:10083000C491CC23A9F0162F81110E947803EC2FCC
:10084000F0E0EE0FFF1FE75AFC4FA591B4918FB770
:10085000F894EC91111108C0D095DE23DC938FBF82
:10086000DF91CF911F910895DE2BF8CFCF93DF93C7
:1008700090E0FC01ED52FC4F249183579C4FFC010A
:1008800084918823C9F090E0880F991FFC01E750FC
:10089000FD4FA591B491FC01E75AFC4FC591D4914D
:1008A00061110DC09FB7F8948C91209582238C9391
:1008B0008881282328839FBFDF91CF9108956230DC
:1008C00051F49FB7F8943C91822F809583238C93A9
:1008D000E8812E2BEFCF8FB7F894EC912E2B2C9331
:1008E0008FBFEACF4F925F926F927F928F929F92CB
:1008F000AF92BF92CF92DF92EF92FF920F931F932E
:10090000CF93DF9300D01F921F92CDB7DEB7209117
:10091000A80727FD2CC149835A836B837C838C01F4
:1009200061E08091A7070E9436048091A8078D831B
:100930004801B12CA12C8D7F09F031C160E072E13A
:100940008AE790E0A50198010E94EF3C29013A0155
:100950007A01690191E0C91AD108E108F108AFEF05
:10096000CA16D104E104F10409F00CF4C7C060E434
:1009700072E48FE090E0A50198010E94EF3C6901CC
:100980007A01B1E0CB1AD108E108F1088D818230FB
:1009900009F06AC082E09FEFC916D104E104F104B6
:1009A00009F00CF45EC160E970ED83E090E0A50110
:1009B00098010E94EF3C69017A01A1E0CA1AD108AE
:1009C000E108F10883E0BFEFCB16D104E104F104A4
:1009D00009F00CF446C168E478EE81E090E0A501EE
:1009E00098010E94EF3C69017A0181E0C81AD108A0
:1009F000E108F10884E09FEFC916D104E104F10495
:100A000009F00CF42EC164E274EF80E090E0A501DF
:100A100094010E94EF3C69017A01B1E0CB1AD10840
:100A2000E108F10885E09FEFC916D104E104F10463
:100A300009F008F416C162E17AE780E090E0A501D0
:100A400094010E94EF3C69017A01B1E0CB1AD10810
:100A5000E108F1088FEFC816D104E104F10411F0A8
:100A600008F0F0C086E0FDC08FEFC816D104E104A5
:100A7000F10409F00CF491C068E478EE81E090E0B4
:100A8000A50198010E94EF3C69017A0191E0C91A21
:100A9000D108E108F108AD8184E0A111C4CF83E061
:100AA000AFEFCA16D104E104F10461F15CF162E137
:100AB0007AE780E090E0A50194010E94EF3C690193
:100AC0007A0181E0C81AD108E108F10884E09FEFBB
:100AD000C916D104E104F104A9F0A0F07301620188
:100AE0009AE0F594E794D794C7949A95D1F7A1E04A
:100AF000CA1AD108E108F10885E004C081E0AD819F
:100B0000A111AFC095B5987F892B85BD89819A8148
:100B1000AB81BC812FEF3FEFA901892B8A2B8B2B57
:100B200079F0D801AA0FBB1F29813A814B815C81E2
:100B30000E94C73B28EE33E040E050E00E94CD3CED
:100B40009D81913009F45CC0923009F46BC0911121
:100B50000EC0C7BC2093A3073093A4074093A507FA
:100B60005093A60780916E00826080936E000F9074
:100B70000F900F900F900F90DF91CF911F910F91D9
:100B8000FF90EF90DF90CF90BF90AF909F908F90AD
:100B90007F906F905F904F90089582E0B0CF60E0BB
:100BA00072E18AE790E0A50198010E94EF3C69019B
:100BB0007A01B1E0CB1AD108E108F10891E0C11443
:100BC000D10481E0E806F10484F068E478EE81E085
:100BD00090E0A50198010E94EF3C69017A0191E043
:100BE000C91AD108E108F10893E0AD81A13009F0FC
:100BF0008DCF80918100887F892B8093810086CF63
:100C0000D0928900C092880020939F073093A0075C
:100C10004093A1075093A20780916F008260809358
:100C20006F00A5CFC092B30020939B0730939C0721
:100C300040939D0750939E0780917000826080933F
:100C4000700095CF730162018AE0F594E794D79420
:100C5000C7948A95D1F7B1E0CB1AD108E108F10821
:100C600087E09091B100987F892B8093B1004ECF9F
:100C70003FB7F8948091250790912607A091270708
:100C8000B091280726B5A89B05C02F3F19F0019603
:100C9000A11DB11D3FBFBA2FA92F982F8827BC01D6
:100CA000CD01620F711D811D911D42E0660F771FFE
:100CB000881F991F4A95D1F70895CF92DF92EF923E
:100CC000FF920F931F93CF93DF9300D000D000D0FB
:100CD000CDB7DEB78091CA099091CB09892B09F471
:100CE00080C0C090D009D090D109E090D209F09096
:100CF000D3090E9438066C157D058E059F0550F4BA
:100D00000E9438066093D0097093D1098093D2096C
:100D10009093D3090E9438060091D0091091D1090F
:100D20002091D2093091D309601B710B820B930B78
:100D30006C32714081059105A0F2F8948091C5094B
:100D40009091C6099A838983E091CA09F091CB09F1
:100D5000DF011196808189879091C109E091D409C2
:100D6000F091D5098091D609992309F449C0908161
:100D7000982B98879081809589238F838F818C838E
:100D800088E08B8358856F8149853B812C818981DF
:100D90009A81508347FD252F3A952083262F39F0DD
:100DA000441F00C000006083000000C0F2CF38E0A4
:100DB0004D9160830000019761F7F093D509E093AE
:100DC000D40949873B832C839A83898378940E9432
:100DD00038066093D0097093D1098093D20990931B
:100DE000D30929960FB6F894DEBF0FBECDBFDF91B1
:100DF000CF911F910F91FF90EF90DF90CF900895CA
:100E00009081982B98879081809589238F838F81FB
:100E10008E8388E08D8358856F8149853D812E8141
:100E200089819A81508347FD252F00C000C020830F
:100E300000C000C000C000C000C060830000262FBA
:100E40003A9541F0441F000000C000C000C000C03F
:100E500000C0E8CF38E04D9100C0608300C001972A
:100E600009F7F093D509E093D40949873D832E8390
:100E7000ABCF8F929F92AF92BF92CF92DF92EF92C1
:100E8000FF924B015C010E9438066B017C010E94BD
:100E900038066C197D098E099F09683E73408105EB
:100EA0009105A8F321E0821A9108A108B10888EE03
:100EB000C80E83E0D81EE11CF11C81149104A1042A
:100EC000B10429F7FF90EF90DF90CF90BF90AF90E3
:100ED0009F908F9008952FB7F8946091210770919B
:100EE000220780912307909124072FBF089508952A
:100EF00008950895AF92BF92CF92DF92EF92FF9242
:100F00000F931F93CF93DF936C017B018B01040F31
:100F1000151FEB015E01AE18BF08C017D10759F0CD
:100F20006991D601ED91FC910190F081E02DC6010F
:100F30001995892B79F7C501DF91CF911F910F91F9
:100F4000FF90EF90DF90CF90BF90AF900895FC019D
:100F5000538D448D252F30E0842F90E0821B930B1E
:100F6000541710F0CF96089501970895FC01918DC4
:100F7000828D981761F0A28DAE0FBF2FB11D5D96C7
:100F80008C91928D9F5F9F73928F90E008958FEF69
:100F90009FEF0895FC01918D828D981731F0828D1D
:100FA000E80FF11D858D90E008958FEF9FEF089574
:100FB000FC01918D228D892F90E0805C9F4F821BD8
:100FC00091098F739927089589EA97E00E94D807BD
:100FD00021E0892B09F420E0822F089586E498E02F
:100FE0000E94D80721E0892B09F420E0822F089580
:100FF000FC01A48DA80FB92FB11DA35ABF4F2C918E
:10100000848D90E001968F739927848FA689B78984
:101010002C93A089B1898C91837080648C93938D7B
:10102000848D981306C00288F389E02D80818F7D1E
:1010300080830895EF92FF920F931F93CF93DF93D6
:10104000EC0181E0888F9B8D8C8D98131AC0E88904
:10105000F989808185FF15C09FB7F894EE89FF89D3
:101060006083E889F98980818370806480839FBF71
:1010700081E090E0DF91CF911F910F91FF90EF9071
:101080000895F62E0B8D10E00F5F1F4F0F73112781
:10109000E02E8C8D8E110CC00FB607FCFACFE889BC
:1010A000F989808185FFF5CFCE010E94F807F1CF45
:1010B000EB8DEC0FFD2FF11DE35AFF4FF0829FB730
:1010C000F8940B8FEA89FB8980818062CFCF0F93E0
:1010D0001F93CF93DF938C01D0E0C0E0F801EC0FB9
:1010E000FD1F6491662341F086E498E00E941A088F
:1010F000892B11F02196F2CFCE01DF91CF911F9174
:101100000F910895CF93DF93EC01888D8823B9F078
:10111000AA89BB89E889F9898C9185FD03C0808102
:1011200086FD0DC00FB607FCF7CF8C9185FFF2CF7F
:10113000808185FFEDCFCE010E94F807E9CFDF91D6
:10114000CF91089580E090E0892B29F00E94EE076E
:1011500081110E94000080E090E0892B29F00E941C
:10116000E40781110E94000080E090E0892B49F0A3
:1011700080E090E0892B29F00E94000081110E94FC
:10118000000080E090E0892B49F080E090E0892B1E
:1011900029F00E94000081110C94000008956093D2
:1011A000EB067093EC068093ED069093EE06645D7B
:1011B0007E4F8F4F9F4F6093E7067093E8068093B2
:1011C000E9069093EA0682E090E09093E606809329
:1011D000E5060E946B076093E1067093E206809338
:1011E000E3069093E4060895CF92DF92EF92FF9288
:1011F0000F931F930E946B078B019C01C090E10627
:10120000D090E206E090E306F090E4066091EB06F1
:101210007091EC068091ED069091EE060C191D0977
:101220002E093F09083E134021053105E0F0DC019D
:10123000CB010196A11DB11D8093EB069093EC06A6
:10124000A093ED06B093EE06B701A60148515C4F9E
:101250006F4F7F4F4093E1065093E2066093E306A1
:101260007093E406C7CF1F910F91FF90EF90DF902E
:10127000CF9008954F925F926F927F928F929F923C
:10128000AF92BF92CF92DF92EF92FF920F931F9394
:10129000CF93DF93FC011681A12FB0E020E833E368
:1012A00041EE51E00E94C73B4B015C01C2EBD7E02D
:1012B0009D0104E610E080E9E82EFF24F394CE01BE
:1012C000825B9740821793079CF14580512C2E54E6
:1012D000384FC90164E670E00E94B93C7C01C90145
:1012E00060E971E00E94B93C6C0104E114E0C1E0E6
:1012F000D0E0390183E068227724C415D5050CF0CD
:1013000040C0C230D10571F56114710459F5E11482
:10131000F10419F4C114D10429F5B0E88B0EBBE334
:101320009B1EB6E2AB1EB11C21960F5F1F4FE5CF8F
:10133000CE0183709927892B99F4CE01B8010E94C0
:10134000B93C892B31F4CE01B7010E94B93C892BFD
:1013500039F4A0E88A0EA1E59A1EA1E0AA1EB11CEC
:101360002196ADCFD8018C91A82FB0E020E831E5CF
:1013700041E050E00E94C73B860E971EA81EB91E92
:10138000D3CF228130E0A0E1BEE00E94D23B6B01CE
:101390007C01218130E0ACE3B0E00E94D23BC60E7C
:1013A000D71EE81EF91E8081C80ED11CE11CF11C5D
:1013B000A481A150BB0B20E831E541E050E00E9440
:1013C0001D3D6C0D7D1D8E1D9F1D680D791D8A1D97
:1013D0009B1DDF91CF911F910F91FF90EF90DF90B8
:1013E000CF90BF90AF909F908F907F906F905F90C5
:1013F0004F900895EF92FF920F9394E6E916F1044F
:10140000CCF092EBE91A97E0F90AE092F506009326
:10141000F4062093F3068093F1066093F006409360
:10142000EF068FEE96E00E943A090F91FF90EF9041
:101430000C94CF089EE1E90EF11CE7CF6F927F92EA
:101440008F929F92AF92BF92CF92DF92EF92FF92D4
:101450000F931F93CF93DF936B017C01EA018CE321
:10146000882E912CA12CB12CC701A50194010E94BA
:10147000CD3C6883CA01B901A50194010E94CD3C0D
:101480006983C701B60120E13EE040E050E00E94E0
:10149000CD3CCA01B90128E130E040E050E00E94B3
:1014A000CD3C6A83C701B60120E831E541E050E058
:1014B0000E94CD3C69017A01CA01B9016C5F7F4F7E
:1014C0008F4F9F4F27E030E040E050E00E94CD3C3E
:1014D0006F5F6B83812C912C540140E094E6692E60
:1014E000712C00E911E0242F30E02E54384FF9011F
:1014F000E370FF273097F9F4C901B3010E94B93CAA
:10150000892B31F4C901B8010E94B93C892B99F4A7
:101510008EE691E0A0E0B0E0880E991EAA1EBB1EE8
:10152000D501C401AA27BB27C816D906EA06FB06BF
:1015300038F04F5FD8CF8DE691E0A0E0B0E0ECCF7F
:101540004E83C90164E670E00E94B93C8C01C90178
:1015500060E971E00E94B93C309729F4011511054A
:10156000E1F40097D1F04DE651E060E070E0841ABC
:10157000950AA60AB70AC818D908EA08FB08A4E120
:10158000B4E020E0213071F4309791F50115110598
:1015900011F4009769F54DE106C04EE651E060E0B8
:1015A00070E0E5CF4C9150E070E060E031E0320F48
:1015B000C416D506E606F70640F0C41AD50AE60AB0
:1015C000F70A1196232F3C30E9F62F5F2D83C39441
:1015D000CC82DF91CF911F910F91FF90EF90DF9020
:1015E000CF90BF90AF909F908F907F906F90089515
:1015F0004CE1D9CFCF92DF92EF92FF92C090DD06FF
:10160000D090DE06E090DF06F090E006C616D70622
:10161000E806F90671F06B017C014FEE56E00E947E
:101620001E0AC092DD06D092DE06E092DF06F0923E
:10163000E006FF90EF90DF90CF9008950E94F408AD
:101640000E94FA0A8091F50690E08E54984F089512
:101650000E94F4080E94FA0A8091F40690E008952E
:101660000E94F4080E94FA0A8091F30690E008951F
:101670000E94F4080E94FA0A8091EF0690E0089513
:101680000E94F4080E94FA0A8091F00690E0089502
:101690000E94F4080E94FA0A8091F10690E00895F1
:1016A000CF92DF92EF92FF92CF93DF93EC010E94F3
:1016B0006B076B017C018F850E94DF039C0181E039
:1016C0002115310509F480E0898B8889811105C0D5
:1016D00091E0232B09F090E0998B29898A892817BA
:1016E00021F0CD8ADE8AEF8AF88E8D899E89AF89B6
:1016F000B88DB701A601481B590B6A0B7B0BDB01A8
:10170000CA01CB80DC80ED80FE80C816D906EA06CF
:10171000FB0664F43A81231749F02A83222349F017
:101720004B895C894F5F5F4F5C8B4B8B3A813111EA
:1017300017C0CF80D884E984FA84C816D906EA068F
:10174000FB0634F48B899C89998388831C8A1B8AC5
:101750002A8BDF91CF91FF90EF90DF90CF9008958B
:10176000CB84DC84ED84FE84C816D906EA06FB0629
:101770007CF78B899C89919581959109E5CF209182
:10178000BA06260F3327331F21323105ECF420919E
:101790007107FC0190E080E0243069F082E0089558
:1017A000A091BA062191AC014656594FA40FB52F0E
:1017B000B11D2C930196861798F38091BA06680F95
:1017C0006093BA0680E0089581E008951092710751
:1017D00081E08093700710924B0761E084E10E94E2
:1017E000080461E085E10E940804E9EBF0E08081F3
:1017F0008E7F808380818D7F808388E48093B80092
:1018000085E48093BC000895CF93DF9391E090939B
:1018100099068823B9F0C091B800D091BA008091A0
:10182000BC008A7B8093BC0060E084E10E940804D5
:1018300060E085E10E9408040E94E60BD093BA00A4
:10184000C093B800DF91CF910895CF92DF92EF92CD
:10185000FF920F931F93CF93DF93D0919A0781E06C
:10186000D13208F09CC0C09199070E9438066B01E4
:101870007C018091710781116CC082E080937107B7
:1018800081E0809370078FEF80936F0710926E074F
:10189000D0936D07A9E7B7E0EDE4F7E080E0D81357
:1018A0008DC010924C0780914C07CC0FC82BC09371
:1018B0004C0780914B07813009F084C010924B0790
:1018C0000E9438066B017C0180914C078093BB001D
:1018D0008091730790917407A0917507B091760776
:1018E000892B8A2B8B2BA1F00E943806009173075D
:1018F0001091740720917507309176076C197D0956
:101900008E099F09061717072807390708F442C0F0
:101910008091BC0083FDD8CF85EC8093BC000E94F1
:1019200038066B017C0180917107823009F44CC04C
:1019300080916F078F3F09F469C080916F078032F3
:1019400009F466C080916F07803309F463C084E0B6
:1019500026C08091730790917407A0917507B0918C
:101960007607892B8A2B8B2B09F483CF0E943806AC
:1019700000917307109174072091750730917607D5
:101980006C197D098E099F09061717072807390763
:1019900008F06FCF809172070E94040C85E01092CE
:1019A000780710929A0710927707DF91CF911F91D5
:1019B0000F91FF90EF90DF90CF9008959D919193BC
:1019C0008F5F6DCF85EEA9CF8091730790917407DB
:1019D000A0917507B0917607892B8A2B8B2B09F480
:1019E000A2CF0E94380600917307109174072091CE
:1019F0007507309176076C197D098E099F090617C6
:101A000017072807390708F08ECFC4CF80E0C7CF6B
:101A100082E0C5CF83E0C3CF0895E0912A0780918B
:101A20002907E81730F4F0E0E55DF84F808190E099
:101A300008958FEF9FEF089590912A0780912907CD
:101A40002FEF3FEF981748F4E92FF0E0E55DF84FEE
:101A5000208130E09F5F90932A07C901089580910B
:101A6000290790912A07891B990B0895CF92DF923D
:101A7000EF92FF920F931F93CF93DF937C01CB01E3
:101A80008A0120917707222389F0EB016B01C40EB4
:101A9000D51ECC15DD0569F06991D701ED91FC915A
:101AA0000190F081E02DC7011995F3CF642F0E94BA
:101AB000BF0BC801DF91CF911F910F91FF90EF9065
:101AC000DF90CF900895CF93DF931F92CDB7DEB70D
:101AD0006983209177072223F9F020919A07203219
:101AE00058F021E030E0FC013383228390E080E075
:101AF0000F90DF91CF91089580917807E82FF0E063
:101B0000E758F84F998190838F5F8093780780938F
:101B10009A0781E090E0ECCF61E0CE0101960E944F
:101B2000BF0BF7CF682F83EE98E00C94630DDF9224
:101B3000EF92FF920F931F93CF93DF93182FF62E00
:101B4000D42ED22F8091C7020E946E0360E083EEF4
:101B500098E00E94630DCAE08D2D6C2F0E94993C85
:101B60008295807F682F690F83EE98E00E94630D55
:101B70008F2D6C2F0E94993C8295807F682F690F72
:101B800083EE98E00E94630D812F6C2F0E94993C98
:101B90008295807F682F690F83EE98E00E94630D25
:101BA00061E083EE98E00E94630D8D2F6C2F0E9400
:101BB000993C8295807F682F690F83EE98E00E94A0
:101BC000630D802F6C2F0E94993C8295807F682F37
:101BD000690F83EE98E00E94630D8E2D6C2F0E949A
:101BE000993C8295807F682F690F83EE98E00E9470
:101BF000630D60E083EE98E00E94630DDF91CF916A
:101C00001F910F91FF90EF90DF900C94250C90E0C6
:101C100080E00895CF93DF93D0E0C0E040E050E053
:101C2000BA01CE010E9442022196CB30D105B1F714
:101C3000DF91CF910C945D0680910B0281110EC053
:101C400080910A0290E890930B0290E09595879519
:101C500095958795833081F080930A0220910B023D
:101C600080910A02822351F480E09CE330E03595B4
:101C7000279520930B02089583ECEECF8FEF9FEF13
:101C8000F5CFCF92DF92EF92FF920F931F93CF93F6
:101C9000DF939091940691110BC08FEF9FEFDF912E
:101CA000CF911F910F91FF90EF90DF90CF9008950B
:101CB00090919306992389F3082FC0919206D0E062
:101CC00080918A0681110DC00E946B076093860681
:101CD00070938706809388069093890681E08093AD
:101CE0008A060E946B07C0908606D0908706E09017
:101CF0008806F09089066C197D098E099F096D325E
:101D0000714081059105B0F0109185060E946B0726
:101D10006093860670938706809388069093890661
:101D200091E0912790938506992331F110928406D2
:101D30001092830620918306309184062095309579
:101D400080918206282326FF1CC081E0809398069C
:101D500027FF1AC081E0809397068091850688232B
:101D600009F49BCF02C0D595C7950A95E2F7C0FF4D
:101D700094CF80E09CE393CFD0938406C0938306F6
:101D8000D9CF10929806E4CF10929706E6CFEF9243
:101D9000FF920F931F93CF93DF93182F80915F06CD
:101DA00081110DC00E946B0760935B0670935C0607
:101DB00080935D0690935E0681E080935F06C091FC
:101DC0005906D0915A06C930D10508F077C0FE01F6
:101DD0008827E251F14F8F4F0C940E3DF70E030F01
:101DE000070F150FF70E030F3A0F3C0F4D0F0E9410
:101DF00035032196CA30D10509F091C010925A06D8
:101E00001092590628C08CEC0E940B03F2CF84E498
:101E10000E940B030E946B0760935B0670935C0645
:101E200080935D0690935E06E4CF0E946B0700915D
:101E30005B0610915C0620915D0630915E06601B8A
:101E4000710B820B930BC4E0D0E06E3E72408105B3
:101E5000910508F064C06091550670915606809116
:101E6000570690915806DF91CF911F910F91FF90E7
:101E7000EF9008958EEBC8CF98E0E92EF12C10E09A
:101E800001E00E94B6028111102B000F81E0E81AD8
:101E9000F108B9F710935306ACCF88E0E82EF12C87
:101EA00010E001E00E94B6028111102B000F21E02A
:101EB000E21AF108B9F7109354069BCFC930D10547
:101EC00009F097CF60915306709154066F3F7607E3
:101ED00011F470E060E0072E000C880B990B0E9453
:101EE000943A20E030E040E85DE30E94F33A1111BB
:101EF00009C06093550670935606809357069093D9
:101F0000580677CF26E636E646EE5FE30E94F33AC0
:101F100020E030E040E052E40E94E23BEACFD09380
:101F20005A06C093590697CFCF93DF93EC012196C1
:101F3000FC0120812A33C9F42181243609F5229637
:101F400030E020E06AE0899190ED980F9A3078F4C3
:101F5000629FA001639F500D1124082E000C990B65
:101F6000C0979A01280F391FEECFCE01DFCF3093F3
:101F70003606209335062115310511F0209309020C
:101F800088818F3689F48A81082E000C990B9C0178
:101F9000205331093093360620933506C3970597B1
:101FA00010F420930802249688818236F1F4229658
:101FB00030E020E06AE0899190ED980F9A3068F463
:101FC000629FA001639F500D1124082E000C990BF5
:101FD000C0979A01280F391FEECF30933606209311
:101FE00035063093070220930602209106023091B5
:101FF0000702032E000C440B550B60E67AEE80E0DE
:1020000090E00E94EF3C82E0220F331F441F551FD7
:102010008A95D1F7209331063093320640933306E8
:1020200050933406CE01DF91CF910895CF92DF9285
:10203000EF92FF920F931F93CF93DF93EC018B01ED
:102040000E946B07CE80DF80E884F984AB01BC017D
:102050004C195D096E097F0988819981092E000C50
:10206000AA0BBB0B84179507A607B707A0F48A85B0
:10207000882389F01A868D811C821D82823060F14E
:1020800081E090E0DF91CF911F910F91FF90EF9051
:10209000DF90CF9008958B859C8580179107C9F4B8
:1020A00081E08C838D818F5F8D830E946B076E83AF
:1020B0007F838887998781E08A872D818A819B81A8
:1020C000281719064CF01C821D821A868FEF9FEF8D
:1020D000D9CF8C81811103C090E080E0D3CF0F3F36
:1020E0001F4FD1F7DFCF8EBD00000DB407FEFDCF2F
:1020F0008EB5089580E00E94731080E00E947310F6
:1021000080E00E94731080E00E94731080E00E94C3
:10211000731080E00E94731080E00E94731080E0D2
:102120000E94731061E08AE00E94080460E08AE087
:102130000C9408048F929F92AF92BF92CF92DF923D
:10214000EF92FF920F931F93CF93DF937C01D62FD3
:102150000E9438064B015C0180917107811167C0B4
:10216000CD2F81E080937107809370079FEF90934C
:102170006F0710926E079D0F90936D0780934C0729
:1021800080914C07EE0CFF1C8E2980934C078091A8
:102190004B07813009F083C010924B070E9438062C
:1021A0006B017C0180914C078093BB008091730789
:1021B00090917407A0917507B0917607892B8A2BAF
:1021C0008B2BA1F00E9438068090730790907407C3
:1021D000A0907507B09076076C197D098E099F094C
:1021E00086169706A806B90608F442C08091BC007E
:1021F00083FDD8CF85EC8093BC000E9438066B012C
:102200007C0180917107813009F44BC080916E0789
:102210008D1710F4C0916E07EDE4F7E0ABE2B7E084
:1022200080E08C1751F191919D938F5FFACF80914F
:10223000730790917407A0917507B0917607892B69
:102240008A2B8B2B09F488CF0E94380600917307E4
:1022500010917407209175073091760768197909F4
:102260008A099B09061717072807390708F074CF52
:10227000809172070E94040CC0E010922A07C0935C
:1022800029078C2FDF91CF911F910F91FF90EF9035
:10229000DF90CF90BF90AF909F908F90089585EE84
:1022A000AACF8091730790917407A0917507B091A0
:1022B0007607892B8A2B8B2B09F4A3CF0E94380633
:1022C0008090730790907407A0907507B090760780
:1022D0006C197D098E099F0986169706A806B9060E
:1022E00008F08FCFC5CFCF93C091C7028C2F0E942B
:1022F0006E0360E083EE98E00E94630D0E94250C5F
:1023000067E070E08C2F90E00E949A1083EE98E0D6
:102310000E941C0D982F92959F70CAE08F709C9F11
:10232000800D112490E090931E0780931D0783EE8B
:1023300098E00E941C0D982F92959F708F709C9F23
:10234000800D112490E0909315078093140783EE7D
:1023500098E00E941C0D982F929593708F709C9F0F
:10236000800D112490E0909313078093120783EE61
:1023700098E00E941C0D83EE98E00E941C0D982F9F
:1023800092959F708F709C9F800D112490E0909388
:1023900017078093160783EE98E00E941C0D982F74
:1023A00092959F708F709C9F800D112490E0909368
:1023B00019078093180783EE98E00E941C0D982F50
:1023C00092959F708F709C9F800D112490E0805398
:1023D000984F90931B0780931A07CF910895CF933E
:1023E000DF93EC0188819981009711F00E94C13D33
:1023F000198218821D821C821B821A82DF91CF9162
:102400000895FC0180819181009711F00C94C13DE9
:102410000895FC0101900020E9F73197AF01481BB6
:10242000590BBC0186E498E00C947A0784E494E0AC
:102430000C940912CF93DF930E946708EC010E946D
:1024400016128C0F9D1FDF91CF9108958F929F924E
:10245000AF92BF920F931F93CF93DF93CDB7DEB7A9
:10246000A1970FB6F894DEBF0FBECDBF19A24230C0
:1024700008F44AE08E010F5D1F4F842E912CB12C81
:10248000A12CA50194010E94CD3CE62FB901CA01FF
:10249000EA30F4F4E05DD801EE938D01232B242B78
:1024A000252B79F790E080E0109719F0CD010E947C
:1024B0000912A1960FB6F894DEBF0FBECDBFDF9113
:1024C000CF911F910F91BF90AF909F908F900895E3
:1024D000E95CE1CFCF93DF93BC01990F880B990B97
:1024E0004AE00E942612EC010E9416128C0F9D1FDA
:1024F000DF91CF910895CF93DF93682F70E090E044
:1025000080E04AE00E942612EC010E9416128C0F15
:102510009D1FDF91CF910895FC01808191810097EB
:1025200011F00C94FA3960E070E0CB0108954F92FD
:102530005F926F927F928F929F92AF92BF92CF9253
:10254000DF92EF92FF921F93CF93DF93CDB7DEB769
:102550002C970FB6F894DEBF0FBECDBF82E29AE093
:102560000E948C1269837A838B839C832C98FAE077
:102570004F2E512C612C712C69817A818B819C8129
:10258000A30192010E94EF3C49015A01660F771F97
:1025900060507C4FDB010D90BC91A02DBE83AD83BC
:1025A00087E090E00E94410E7C010E941C0E6C01AD
:1025B000C501B401A30192010E94EF3C660F771F91
:1025C00060507C4FFB018080918086E090E00E940B
:1025D000410E5C010E941C0ECE20DF202D813E8129
:1025E000C222D322F12CE12C1AE0CC0CDD1CEE1C13
:1025F000FF1C1A95D1F78A219B2188229922B12CA0
:10260000A12C8C289D28AE28BF2869817A818B81D6
:102610009C8124E630E040E050E00E94EF3C6901FC
:102620007A0180919806882311F06894B6F8809119
:102630009706882311F06894B7F8809195069091D9
:102640009606019711F43FE3B322109105074B2C36
:10265000552466247724C501AA27BB278D839E8332
:10266000AF83B887BB27AB2D9A2D892D89879A8791
:10267000AB87BC87112309F49BC1882D0E9473107E
:1026800089850E9473108D810E947310842D0E9491
:1026900073108AE0882E912CA12CB12CC701B601B1
:1026A000A50194010E94EF3C660F771F60507C4F9C
:1026B000DB010D90BC91A02DBE83AD8385E090E041
:1026C0000E94410E7C010E941C0E6C0169817A817E
:1026D0008B819C8128EE33E040E050E00E94EF3C8B
:1026E000CA01B901A50194010E94EF3C660F771F52
:1026F00060507C4FFB014080518084E090E00E945C
:10270000410E3C010E941C0ECE20DF202D813E8117
:10271000C222D322F12CE12C34E1CC0CDD1CEE1CC6
:10272000FF1C3A95D1F78621972148225922712C16
:10273000612C4AE0440C551C661C771C4A95D1F765
:102740004C285D286E287F2869817A818B819C8145
:1027500020E137E240E050E00E94EF3CCA01B901BD
:10276000A50194010E94EF3C660F771F60507C4FDB
:10277000DB010D90BC91A02DBE83AD8383E090E082
:102780000E94410E6C010E941C0EC822D922ED81CC
:10279000FE81CE22DF22F12CE12CC428D528E628A8
:1027A000F72869817A818B819C8120EA36E841E0B3
:1027B00050E00E94EF3C29013A018091980688235D
:1027C00009F401C16894F6F880919706882309F40A
:1027D000FDC06894F7F88F2D9927AA27BB278D8312
:1027E0009E83AF83B8874701AA24BB24BB27AF2DA4
:1027F0009E2D8D2D89879A87AB87BC87112309F47D
:10280000E8C08C2D0E94731089850E947310882D5A
:102810000E9473108D810E9473103AE0832E912CD8
:10282000A12CB12CC301B201A50194010E94EF3C7F
:10283000660F771F60507C4FDB010D90BC91A02D7F
:10284000BE83AD8382E090E00E94410E7C010E9435
:102850001C0E6C0169817A818B819C8120E432E4B9
:102860004FE050E00E94EF3CCA01B901A50194017C
:102870000E94EF3C660F771F60507C4FFB01408049
:10288000518081E090E00E94410E3C010E941C0EAC
:10289000CE20DF202D813E81C222D322F12CE12CDB
:1028A00064E1CC0CDD1CEE1CFF1C6A95D1F786217F
:1028B000972148225922712C612C7AE0440C551C36
:1028C000661C771C7A95D1F7C428D528E628F72806
:1028D00069817A818B819C8120E836E948E950E062
:1028E0000E94EF3CCA01B901A50194010E94EF3C8E
:1028F000660F771F60507C4FDB01AD90BC9090E07D
:1029000080E00E94410E9A8389830E941C0EE98117
:10291000FA818E239F238A219B21B0E0A0E08C299D
:102920009D29AE29BF29209198066C017D012223A3
:1029300009F45AC06894F6F880919706882309F440
:1029400056C06894F7F84F2C552466247724470125
:10295000AA24BB24BB27AF2D9E2D8D2D89839A835E
:10296000AB83BC83112309F445C08C2D0E947310E6
:1029700089810E947310882D0E947310842D0E94FB
:1029800073102C9A2C960FB6F894DEBF0FBECDBFF5
:10299000DF91CF911F91FF90EF90DF90CF90BF908C
:1029A000AF909F908F907F906F905F904F90089521
:1029B000842D0E9473108D810E94731089850E945E
:1029C0007310882D64CEE894F6F8FECEE894F7F8FC
:1029D00002CF8D810E947310882D0E94731089850B
:1029E0000E9473108C2D17CFE894F6F8A5CFE894C9
:1029F000F7F8A9CF842D0E947310882D0E947310C0
:102A000089810E9473108C2DBACF0F931F93CF939F
:102A1000DF938C01EB01FC01808191810097E1F053
:102A20006881798161157105A9F0428153812C81FA
:102A30003D814217530770F00E94343F8C819D8185
:102A4000F801958384831D821C82DF91CF911F91B1
:102A50000F9108950E94C13D88819981F801918369
:102A600080838A819B81938382838C819D819583DE
:102A70008483198218821B821A82E5CF0F931F93D9
:102A8000CF93DF93EC0188819981009759F02A81D7
:102A90003B812617370730F081E0DF91CF911F91FE
:102AA0000F9108958B016F5F7F4F0E944A3E009700
:102AB00059F0998388831B830A832C813D81232BC2
:102AC00059F7FC011082E8CF80E0E7CFEF92FF9248
:102AD0000F931F93CF93DF936115710541F480E04D
:102AE000DF91CF911F910F91FF90EF9008954115C5
:102AF0005105B1F07B01EC010C811D81040F151F04
:102B0000B8010E943E15882351F3288139818C81B8
:102B10009D81B701820F931F0E94343F1D830C8358
:102B200081E0DECFEF92FF920F931F93CF93DF935D
:102B3000CDB7DEB72D970FB6F894DEBF0FBECDBF71
:102B40007C01CB01BA012AE08E010F5F1F4FA80163
:102B50000E94413AF80101900020E9F73197AF0156
:102B6000401B510BB801C7010E946615811103C0BB
:102B7000C7010E94EF11C7012D960FB6F894DEBF72
:102B80000FBECDBFDF91CF911F910F91FF90EF90BE
:102B90000895CF93DF93EC01FB0101900020E9F74A
:102BA0003197AF01461B570B0E946615811103C078
:102BB000CE010E94EF11CE01DF91CF910895CF9306
:102BC000DF93EC01FB0144815581608171810E949A
:102BD0006615811103C0CE010E94EF11CE01DF9175
:102BE000CF910895EF92FF920F931F93CF93DF93AE
:102BF00000D01F92CDB7DEB77C01862F4AE08E0150
:102C00000F5F1F4FB80190E00E94213AF801019038
:102C10000020E9F73197AF01401B510BB801C70104
:102C20000E9466150F900F900F900F90DF91CF913B
:102C30001F910F91FF90EF900895EF92FF920F93E5
:102C40001F93CF93DF93EC017B018A01BA010E94AD
:102C50003E1581110BC0CE010E94EF11CE01DF9114
:102C6000CF911F910F91FF90EF9008951D830C83DA
:102C7000B701888199810E94343FF0CFFB01019018
:102C80000020E9F73197AF01461B570B0C941D1636
:102C90000F931F93CF93DF93CDB7DEB762970FB635
:102CA000F894DEBF0FBECDBF8C01CB01F8011182BD
:102CB000108213821282158214824AE0BE016F5F75
:102CC0007F4F0E94213ABE016F5F7F4FC8010E9473
:102CD0003E1662960FB6F894DEBF0FBECDBFDF91F1
:102CE000CF911F910F9108950F931F93CF93DF936F
:102CF000CDB7DEB761970FB6F894DEBF0FBECDBF7C
:102D00008C01CB01F801118210821382128215828C
:102D100014824AE0BE016F5F7F4F0E94633ABE019A
:102D20006F5F7F4FC8010E943E1661960FB6F89400
:102D3000DEBF0FBECDBFDF91CF911F910F910895E0
:102D4000CF93DF93EC01FB018617970749F0608171
:102D500071816115710541F0448155810E941D16F4
:102D6000CE01DF91CF9108950E94EF11F9CFFC01C0
:102D70001182108213821282158214820C94A01682
:102D8000FC01118210821382128215821482FB01CF
:102D900001900020E9F73197AF01461B570B0C94C7
:102DA0001D16AF92BF92CF92DF92EF92FF920F93D8
:102DB0001F93CF93DF936C015B017A018901241784
:102DC000350720F48F2D7901042F182F66E474E065
:102DD000C6010E94C016D5011496CD91DC91EC1667
:102DE000FD06E0F40C171D0708F4E801D501ED918C
:102DF000FC911197EC0FFD1F108110826D917C9159
:102E00006E0D7F1DC60161157105A1F00E943E1671
:102E1000F50180819181C80FD91F1883C601DF9108
:102E2000CF911F910F91FF90EF90DF90CF90BF90C7
:102E3000AF9008950E94EF11EBCF4F925F926F9287
:102E40007F928F929F92AF92BF92CF92DF92EF923A
:102E5000FF920F931F93CF93DF9300D000D0CDB795
:102E6000DEB77C014B015A018091520681113AC0B4
:102E700081E0809352069AE4692E96E0792E22E44E
:102E8000422E26E0522E10E000E00F5F1F4F680137
:102E900081E0C81AD1089801A601B401CE010196BB
:102EA0000E94D116CE0101960E948C12D3016D931F
:102EB0003D01CE0101960E9401129801A601B501C3
:102EC000CE0101960E94D116CE0101960E948C126D
:102ED000F20161932F01CE0101960E940112083088
:102EE000110599F6909141068AE4C82E86E0D82E05
:102EF000E2E4F6E08601A801D8018C919A30D8F579
:102F00008F5F8C930F5F1F4FDA018C918A3019F419
:102F1000D80111971C923196B6E002351B0759F77C
:102F20009F5F943169F19093410666E474E0C701B4
:102F30000E94C016F60161916F01C7010E94F2154F
:102F40000C151D05B9F7C70126960FB6F894DEBF1C
:102F50000FBECDBFDF91CF911F910F91FF90EF90EA
:102F6000DF90CF90BF90AF909F908F907F906F90A9
:102F70005F904F9008952081281721F28F5FC1CF75
:102F80001092410610925206D0CFCF92DF92EF926C
:102F9000FF921F93CF93DF93CDB7DEB72C970FB679
:102FA000F894DEBF0FBECDBF182F69E874E0CE01E4
:102FB00007960E94C01622E030E050E040E0133057
:102FC00081F024E030E042E050E01C3051F026E097
:102FD00030E0103321F0103FA9F428E030E044E065
:102FE00050E062E27AE0CE0101960E94D116BE0165
:102FF0006F5F7F4FCE0107960E940515CE010196A7
:103000000E940112CE0107960E948C126B01CE0124
:1030100007960E940112C6012C960FB6F894DEBFE7
:103020000FBECDBFDF91CF911F91FF90EF90DF904A
:10303000CF900895EF92FF920F931F93CF93DF935A
:10304000CDB7DEB762970FB6F894DEBF0FBECDBF27
:103050007C018B0177FF03C0119501951109B8011F
:10306000C7010E944816083E83E018070CF082C092
:10307000B801CE010D960E9448166EE474E0CE01B0
:1030800001960E94C016BE016F5F7F4FCE0107966A
:103090000E94B716BE01635F7F4FCE0107960E9464
:1030A000DF15BC01C7010E94A016CE0107960E9441
:1030B0000112CE0101960E940112CE010D960E94CE
:1030C0000112043611050CF055C0B801CE010D9661
:1030D0000E9448166DE474E0CE0101960E94C0166D
:1030E000BE016F5F7F4FCE0107960E94B716BE01EB
:1030F000635F7F4FCE0107960E94DF15BC01C701B9
:103100000E94A016CE0107960E940112CE010196E0
:103110000E940112CE010D960E9401120A30110583
:103120004CF5B801CE010D960E9448166CE474E08F
:10313000CE0101960E94C016BE016F5F7F4FCE0187
:1031400007960E94B716BE01635F7F4FCE010796B8
:103150000E94DF15BC01C7010E94A016CE01079690
:103160000E940112CE0101960E940112CE010D961D
:103170000E940112C70162960FB6F894DEBF0FBE1F
:10318000CDBFDF91CF911F910F91FF90EF900895E8
:103190000F931F93CF93DF93CDB7DEB762970FB630
:1031A000F894DEBF0FBECDBF8C0177FF03C07195D1
:1031B000619571096A307105A4F5CE010D960E94E2
:1031C00048166EE474E0CE0101960E94C016BE015E
:1031D0006F5F7F4FCE0107960E94B716BE01635FF7
:1031E0007F4FCE0107960E94DF15BC01C8010E94E7
:1031F000B716CE0107960E940112CE0101960E94D9
:103200000112CE010D960E940112C80162960FB6FE
:10321000F894DEBF0FBECDBFDF91CF911F910F910C
:103220000895C8010E944816F0CF0F931F93CF93C3
:10323000DF93CDB7DEB768970FB6F894DEBF0FBE49
:10324000CDBF8B018330D9F52091260A3091270A12
:1032500042E050E062E27AE0CE010D960E94D11683
:10326000B801CE0101960E94C818BE016F5F7F4F62
:10327000CE0107960E94B716BE01635F7F4FCE0155
:1032800007960E94DF15BC0182E29AE00E94A01618
:10329000CE0107960E940112CE0101960E940112F2
:1032A000CE010D960E94011268960FB6F894DEBF0B
:1032B0000FBECDBFDF91CF911F910F9108958C303C
:1032C00009F042C02091260A3091270A44E050E0DC
:1032D00062E27AE0CE0143960E94D116B801CE0197
:1032E0000D960E94C81822E030E050E040E062E213
:1032F0007AE0CE0101960E94D116BE016F5F7F4F2A
:10330000CE0107960E94B716BE01635F7F4FCE01C4
:1033100007960E94DF15BE016D5E7F4F0E94DF158C
:10332000BC0182E29AE00E94A016CE0107960E949C
:103330000112CE0101960E940112CE010D960E944B
:103340000112CE014396AECF2091260A3091270A72
:1033500046E050E0803349F0803F09F0A5CF20914E
:10336000260A3091270A48E050E062E27AE0CE0176
:1033700043960E94D116B801CE010D960E94C8183E
:1033800024E030E0B2CF0E946B0760933806709360
:10339000390680933A0690933B068091370688233E
:1033A00009F44FC02091950630919606C901880F07
:1033B000991F22313105A1F1FC01E35CFD4F4081F1
:1033C00051814150510951834083DC01A35CBD4FC1
:1033D0006D917C911197FC01E559FD4F4081518120
:1033E000641775073CF4FC01E756FD4F408151819D
:1033F0004D935C932131310509F520915F023091A5
:10340000600221303105B9F420E820938206835C04
:103410009D4FFC0160817181809192060C94151979
:1034200040916102509162024C50510950936202E6
:1034300040936102CACF10928206E9CF2A3031054B
:1034400031F708950E946B07609338067093390630
:1034500080933A0690933B0680913706882309F4BF
:1034600044C02091950630919606C901880F991F96
:103470002231310561F1FC01E35CFD4F4081518156
:103480004F5F5F4F51834083DC01A35CBD4F6D9163
:103490007C911197FC01E756FD4F40815181461701
:1034A00057073CF4FC01E559FD4F408151814D9394
:1034B0005C9321313105B1F410928206835C9D4FFB
:1034C000FC0160817181809192060C9415194091E4
:1034D000610250916202445F5F4F509362024093D9
:1034E0006102D2CF2A30310549F708958F929F9219
:1034F000AF92BF92DF92EF92FF920F931F93CF9301
:10350000DF93CDB7DEB7A2970FB6F894DEBF0FBE3C
:10351000CDBF8C018AE0EEECF2E0DE011196019065
:103520000D928A95E1F780912F06909130060196D1
:103530008A3091050CF086C09093300680932F0658
:10354000E0912F06F091300681E090E08C0F9D1FF6
:10355000E80FF91FD0808091610290916202489734
:1035600009F075C00E946B074B015C010E94380B8B
:10357000BC01CE014D960E94C8180E94400BBC01B0
:10358000CE0147960E94C8180E94480BBC01CE018C
:103590000B960E94C818BE01655F7F4FCE01419611
:1035A0000E94B716BE01695E7F4FCE0141960E9410
:1035B000DF15BE01635E7F4F0E94DF157C01C501F0
:1035C000B40128EE33E040E050E00E94CD3C24E618
:1035D00030E040E050E00E94CD3CBA01A901C701B3
:1035E0000E9492157C016D2D0E94F215811103C07D
:1035F000C7010E94EF11B701C8010E94B716CE01A2
:1036000041960E940112CE010B960E940112CE013A
:1036100047960E940112CE014D960E940112C801E8
:10362000A2960FB6F894DEBF0FBECDBFDF91CF914B
:103630001F910F91FF90EF90DF90BF90AF909F9000
:103640008F9008951092300610922F0679CF0E9425
:103650006B0728EE33E040E050E00E94CD3C24E6CA
:1036600030E040E050E00E94CD3C49015A010E9408
:10367000380BBC01CE014D960E94C8180E94400B29
:10368000BC01CE0147960E94C8180E94F4080E940F
:10369000FA0A8091F1066CE070E0882331F0682F1F
:1036A00070E08D3010F06C507109CE010B960E94C5
:1036B000C818BE01655F7F4FCE0141960E94B716C4
:1036C000BE01695E7F4FCE0141960E94DF15BE01AB
:1036D000635E7F4F0E94DF15B501A40181CF8F92F9
:1036E0009F92AF92BF92CF92DF92EF92FF920F9391
:1036F0001F93CF93DF93CDB7DEB72C970FB6F89417
:10370000DEBF0FBECDBF8C016A017B0180917906BF
:10371000811111C00E946B07645B7B4F8F4F9F4FDD
:10372000609375067093760680937706909378067B
:1037300081E08093790680916D06811109C067E46C
:1037400074E087E696E00E94C01681E080936D06E3
:103750000E946B078090750690907606A090770681
:10376000B0907806681979098A099B09693E734007
:103770008105910508F484C00E946B07609375066B
:1037800070937606809377069093780620E030E079
:1037900040E251E4C701B6010E94F33A6B017C019B
:1037A00020E030E0A9010E94843C20E030E040E0CD
:1037B0005FE387FD3CC0C701B6010E94E23B0E9467
:1037C0004E3C462F242F372F37FF03C031952195CC
:1037D00031098091630290916402892B09F047C0FE
:1037E000B9012A30310544F5CE0107960E947416BE
:1037F0006BE474E0CE0101960E94C016BE01695FC1
:103800007F4FCE0101960E94DF156CE474E00E94A8
:10381000C915BC0187E696E00E94A016CE0101966C
:103820000E940112CE0107960E94011229C0C70111
:10383000B6010E94E13BC3CF243631053CF4CE01F2
:1038400007960E9474166CE474E0D4CF283E33408F
:1038500038F4CE0107960E9474166DE474E0CACF66
:10386000CE0107960E9474166EE474E0C3CF2A302E
:103870003105FCF467E474E087E696E00E943E16AA
:1038800067E676E0C8010E94B716C8012C960FB60D
:10389000F894DEBF0FBECDBFDF91CF911F910F9186
:1038A000FF90EF90DF90CF90BF90AF909F908F9060
:1038B0000895C9016AE070E00E94A53C24363105F4
:1038C000A4F4CE0107960E9474166CE474E0CE0155
:1038D00001960E94C016BE01695F7F4FCE0101961E
:1038E0000E94DF156BE474E092CF283E334038F439
:1038F000CE0107960E9474166DE474E0E8CFCE0105
:1039000007960E9474166EE474E0E1CF85ED809313
:10391000BC008091730790917407A0917507B091D6
:1039200076070796A11DB11D23E0B695A79597953B
:1039300087952A95D1F72091BC0024FD03C01092F1
:10394000710708954091730750917407609175074E
:1039500070917607452B462B472B69F30097A105FD
:10396000B10541F02AE22A95F1F700C00197A109BB
:10397000B109E1CF809172070C94040C0C94B93B0F
:103980000C94B13B8F929F92AF92BF92CF92DF92F5
:10399000EF92FF920F931F93CF93DF9388E090E015
:1039A0000E94C01CC82FC82ED12C89E090E00E9434
:1039B000C01C882EE82EF12C8AE090E00E94C01CEA
:1039C000082F10E0912CB12CA12CBA2CA92C982CEA
:1039D0008824AC2A882AD0E0C0E080910E02B5018C
:1039E000A401811103C040E050E0BA01CE010E9461
:1039F00042022196CB30D10581F70E945D068EE50B
:103A000092E00E941A1289E592E00E946708C601BE
:103A10000E946A1282E592E00E946708C7010E9434
:103A20006A128CE492E00E946708C801DF91CF918E
:103A30001F910F91FF90EF90DF90CF90BF90AF90CC
:103A40009F908F900C946A1280910607882341F012
:103A5000109206078091810680930E020C94C21C7E
:103A600008950F931F9380915F0290916002892BBC
:103A700009F44BC0809140068823A9F00E946B078F
:103A800000913C0610913D0620913E0630913F0684
:103A9000601B710B820B930B693E7340810591058E
:103AA000A0F1109240060E94480B209159023091DB
:103AB0005A028217930749F50E94400B20915B023E
:103AC00030915C028217930701F50E94380B209118
:103AD0005D0230915E0282179307B9F40E94241DA3
:103AE0000E946B0760933C0670933D0680933E06F0
:103AF00090933F0681E08093400680910C02909164
:103B00000D0290931107809310071F910F91089554
:103B10002F923F924F925F926F927F928F929F92DD
:103B2000AF92BF92CF92DF92EF92FF920F931F93CB
:103B3000CF93DF93CDB7DEB7EE970FB6F894DEBF25
:103B40000FBECDBF80914B05811107C00E94480B6D
:103B500080934A0581E080934B058091370681115F
:103B600029C000914A0510E00E94480B0817190768
:103B700009F10E94480B80934A050E94480B20914E
:103B80006702309168028217930749F481E08093BD
:103B9000060780910E028093810610920E020E9409
:103BA000480B2091690230916A028217930711F441
:103BB0000E94241D0E946B0720E137E240E050E0A4
:103BC0000E94CD3C672B682B692B01F580911C0767
:103BD0008823E1F00E947311E0901A07F0901B0710
:103BE00000911807109119072091160730911707B7
:103BF00040911D0750911E076091140770911507A1
:103C000080911207909113070E94FA090E946B0796
:103C100060932B0670932C0680932D0690932E06AE
:103C200000912706109128062091290630912A0636
:103C3000601B710B820B930B61367A4E81059105E7
:103C4000E0F180912606811107C088E192E00E9490
:103C50001A1281E08093260689EA97E00E94D8072D
:103C6000892B59F189EA97E00E94B6079091AB053C
:103C7000E92FF0E0E85AFA4F80839F5F923509F40C
:103C80000AC19093AB058A30C1F4E091AB05F0E036
:103C9000E85AFA4F10821092AB05E9E5F5E021E011
:103CA00030E040E05191C90101965A3209F4F6C062
:103CB00045279C0183359105A9F780912B069091AA
:103CC0002C06A0912D06B0912E064091270650910A
:103CD00028066091290670912A068C019D01041B1B
:103CE000150B260B370BB901A801413C544D61401F
:103CF000710570F08093270690932806A0932906FB
:103D0000B0932A0688EF91E00E941A1210922606BC
:103D100010921A0610921B0610921C0610921D0695
:103D200086EF98E090932106809320060091F30897
:103D300010E010932306009322068091C00990E0C2
:103D400090932506809324068091EF088530A1F595
:103D50008091F3088A3108F4B3C28091F6089091FB
:103D6000F708843F914008F07CC210921F06109221
:103D70001E068FEF9FEFDC0180931A0690931B06BF
:103D8000A0931C06B0931D068BE090E0909317065D
:103D90008093160660911A0670911B0680911C068E
:103DA00090911D0640E10E9426120E94161282E0A8
:103DB0008093EF081092F30860911A0670911B0629
:103DC0008CE59AE00E9416109093150680931406D5
:103DD00060911A0670911B068FE49AE00E941610FB
:103DE000909313068093120660911A0670911B0639
:103DF00082E49AE00E9416109093110680931006B8
:103E00000091100710911107F8018081882309F4AF
:103E1000C1C30E946B07C090B205D090B305E0907B
:103E2000B405F090B5056C197D098E099F09C09005
:103E3000AE05D090AF05E090B005F090B105C61684
:103E4000D706E806F90608F0A5C30E946B074B01E8
:103E50005C018092B2059092B305A092B405B09235
:103E6000B505780130E020E04AE0F801D1908F01FB
:103E700080ED8D0D8A3008F0C3C2429FC001439F80
:103E8000900D11242D2DDD0C330B20533109280FFB
:103E9000391F7F01EACF1092AB05F5CE885A9A4FB1
:103EA000FC01808181340CF087538295807F285AF1
:103EB0003A4FF901928191348CF19753890F48134D
:103EC000FCCE80915805843209F0F7CE80915B05D5
:103ED000823509F0F2CE80915C058D3409F0EDCE8B
:103EE00080915D05833409F0E8CEA4E6B5E090E06A
:103EF00080E0ECE0F0E02D912C3209F091C10196C8
:103F00008130910569F42C91213409F489C180E54F
:103F100094E00E9409120E941612CFCE9053CECF89
:103F20008830910509F07CC1EF5FA0905F0590900B
:103F30006005B090610560906205709063054090E7
:103F40006405F0E0E85AFA4FC080D1808281082EE3
:103F5000000C990BC0971AE0189F7001199FF00C84
:103F600011248381E80EF11C87FDFA9400E3E01A26
:103F7000F108048155804CE050E061E070E0C70139
:103F80000E94D539882309F498CE8C2DCC0C990B3E
:103F9000C097189F9001199F300D1124C9018D0DF4
:103FA000911DD7FC9A956C0190E3C91AD1084FE195
:103FB00050E061E070E0C6010E94D539882309F421
:103FC0007CCE8A2DAA0C990BC097189F9001199F3F
:103FD000300D1124F901E90DF11D97FCFA954F01FF
:103FE000F0E38F1A910847E150E070E060E0C4010F
:103FF0000E94D539882309F460CE8B2DBB0C990B18
:10400000C097189F5001199FB00C1124A60CB11C29
:1040100067FCBA9420E3A21AB1084BE350E070E0C9
:1040200060E0C5010E94D539882309F446CE872D6A
:10403000770C990BC097189F3001199F700C1124B1
:10404000640C711C47FC7A9430E3631A71084BE3EB
:1040500050E070E060E0C3010E94D539882309F484
:104060002CCE202F000F330B20533109129FC0019B
:10407000139F900D11248C010053184F050D111D35
:1040800057FC1A9500531109063E87E01807C4F43F
:104090006982AA828B82CD82EE82025B0F83CE017F
:1040A00001960E943A0986519B4DAE014F5F5F4FCA
:1040B0000E941E0A0F8110E00E54184FEE80CD8032
:1040C00046EF57E062EE77E0C8010E94D5398823B9
:1040D00009F4F3CD8092360AA092370A6092380A2A
:1040E000C092390AE0923A0A10933C0A00933B0AC4
:1040F0000E946B076B017C01C0923E0AD0923F0A7E
:10410000E092400AF092410A8091570581118FC0D8
:104110000E946B076C197D098E099F09693B7B40E2
:104120008105910508F0C9CD80ED91E00E941A1239
:104130008091360A0E947B128091370A0E947B127E
:104140008091380A0E947B1280913B0A90913C0A30
:1041500018EEC12E13E0D12EB6010E94B93C7C01AD
:1041600000913A0A10E02091390A30E04091380A73
:1041700050E06091370A70E08091360A90E00E942A
:10418000FA09A0916502B091660220E13EE00E942A
:10419000163D0091EB061091EC062091ED06309152
:1041A000EE06DC01CB01800F911FA21FB31F80938D
:1041B000EB069093EC06A093ED06B093EE060E94FA
:1041C000F4084FEE56E00E941E0A0E941E0B4C019E
:1041D0000E94280B082F0E94300BB82E0E94380B2B
:1041E000F82E0E94400B182F0E94480B382FC40154
:1041F000B6010E94B93CE82E2B2D4F2D612F832F45
:104200000E94970D81E0809357050E946B07609391
:1042100053057093540580935505909356054DCDE5
:104220003196E335F10509F066CEE0E07ECE0E94DE
:104230006B0700915305109154052091550530915D
:104240005605601B710B820B930B613477478B41D2
:10425000910518F01092570530CD81E080935705F5
:104260002CCD8091F8089091F90885974B9740F5EF
:10427000EFEEF8E082E090E040E050E0BA01DC01CF
:1042800011962091F3082A171B0609F00CF48EC032
:1042900023853485275031092730310508F085C042
:1042A00025853685235131092F30310508F470C03A
:1042B000258536852A5031092930310508F470C02A
:1042C000063011050CF473CD8FEE98E09EAF8DAFE4
:1042D00053E0252E312C65ECC62E6DE9D62E6CE10F
:1042E000E62E61E8F62E201631060CF078C0EDAD12
:1042F000FEAD65857685A184B28490E080E00E9461
:10430000923A2B013C01B50190E080E00E94923A84
:104310004B015C012DEC3CEC4CE45FE30E94F33A72
:104320009B01AC01C301B2010E948D3AF0E0E0E0D4
:1043300087FD14C02DEC3CEC4CE45FE3C301B201FB
:104340000E94F33A9B01AC01C501B4010E948D3A71
:10435000E2E0F0E087FD02C0E1E0F0E0A7019601B5
:1043600063E971E080E091E00E94893C6F01FF0FFA
:10437000EE08FF08C626D726E826F926FFEF2F1AF3
:104380003F0A2DAD3EAD2E5F3F4F3EAF2DAFABCFC1
:10439000440F551F661F771F4160029634966FCFFA
:1043A000440F551F661F771FF8CFCD0101979595D4
:1043B000879590931F0680931E060C972CF41092FD
:1043C0001F0610921E067CCF40931A0650931B06C0
:1043D00060931C0670931D0684E090E0D7CCC092D9
:1043E0001A06D0921B06E0921C06F0921D0680E28F
:1043F00090E090931F0680931E068FEF9FEFC6CC30
:10440000309336062093350660913106709132065E
:1044100080913306909134062115310511F1032E58
:10442000000C440B550B0E94EF3C2093AE053093DB
:10443000AF054093B0055093B105EFE9ED0DE730BE
:10444000B0F40E2E000CFF0B8827E65DFD4D8F4F5C
:104450000C940E3D40254225342538253A253C252F
:104460003E252091090230E050E040E0DCCF109280
:10447000AD05F7018181833241F48091AD058F5FF5
:104480008093AD0587010E5F1F4FF80180818E324A
:10449000F1F4C090AE05D090AF05E090B005F0907B
:1044A000B105C701B60122E030E040E050E00E94D3
:1044B000EF3CC20ED31EE41EF51EC092AE05D09294
:1044C000AF05E092B005F092B1050F5F1F4FF80104
:1044D000808180538A3008F0D7C28093AC050F5F8B
:1044E0001F4FF80180818C3211F40F5F1F4FE09154
:1044F000AD05EE2309F44EC0C090AE05D090AF05D7
:10450000E090B005F090B1058091AC058450990B16
:104510004CE0489F9001499F300D1124E20FF32F8A
:10452000F11DEE0FFF1FE051FD4FB701A601808185
:1045300091810E9472040E946B07681979098A09A7
:104540009B09C616D706E806F90620F50E946B07F8
:104550006093B2057093B3058093B4059093B5054D
:104560008091A807813009F494C2823009F497C27F
:10457000811105C080916E008D7F80936E0060E098
:104580008091A7070E94080481EE91E00E941A1210
:1045900010E000E010931107009310070E946B07D2
:1045A00000910C0610910D0620910E0630910F0619
:1045B000601B710B820B930B6135710581059105B1
:1045C000F8F08091A807813009F46FC2823009F4B5
:1045D0006FC2811105C080916E008695817031F4A3
:1045E00080910E02811167C20E940A0E0E946B0721
:1045F00060930C0670930D0680930E0690930F0641
:104600008091950690919606892B21F080910B065A
:104610008111DBC1809137068111D7C18091CC0512
:1046200081110DC00E946B076093C8057093C90586
:104630008093CA059093CB0581E08093CC0580914F
:10464000C00581110DC00E946B076093BC0570937B
:10465000BD058093BE059093BF0581E08093C005A2
:104660000E946B070091C8051091C9052091CA05E9
:104670003091CB05601B710B820B930B00910002F4
:1046800010910102209102023091030206171707D0
:104690002807390708F04DC00E946B076093C805D2
:1046A0007093C9058093CA059093CB058091BA0594
:1046B0009091BB05009709F082C281E090E0909351
:1046C00096068093950688E893E1A0E0B0E0809399
:1046D000000290930102A0930202B0930302809122
:1046E000BA059091BB058230910581F4109296062F
:1046F0001092950640E65AEE60E070E040930002AA
:10470000509301026093020270930302019683307A
:1047100091050CF074C29093BB058093BA0580910B
:104720000B06882321F0109296061092950610929F
:104730000B060E946B070091C8051091C9052091D6
:10474000CA053091CB05601B710B820B930B603D4A
:1047500077408105910508F024C30E946B07009102
:10476000BC051091BD052091BE053091BF05601BB1
:10477000710B820B930B653671058105910508F469
:1047800024C10E946B076093BC057093BD058093A4
:10479000BE059093BF058091950690919606209155
:1047A0000707222309F430C2892B89F5CE014996E7
:1047B0000E94761A81E02091630230916402232BDB
:1047C00009F480E00E94C70EAB01BC01CE01019646
:1047D0000E946F1BAE01475E5F4FBE016F5F7F4F50
:1047E000CE014F960E941D17BE01615E7F4F82E28F
:1047F0009AE00E940515CE014F960E940112CE014B
:1048000001960E940112CE0149960E9401128091E8
:10481000950690919606019709F062C00E941E0BC2
:1048200068EE73E00E94B93CBC01CE018B960E94F9
:10483000C8180E94280BBC01CE0185960E94C8189A
:104840000E94300BBC01CE0149960E94C818BE01DF
:10485000675E7F4FCE014F960E94B716BE016B5D1B
:104860007F4FCE014F960E94DF15BE01655D7F4FE1
:104870000E94DF15BC01CE01C1960E94B716CE0181
:1048800001960E94761AAE014F5C5F4FBE016F5FCA
:104890007F4FCE01C7960E941D17BE01695C7F4FF6
:1048A00082E29AE00E940515CE01C7960E9401128D
:1048B000CE0101960E940112CE01C1960E94011202
:1048C000CE014F960E940112CE0149960E9401121C
:1048D000CE0185960E940112CE018B960E94011294
:1048E0008091950690919606049709F06EC081E03C
:1048F0002091630230916402232B09F480E00E942E
:10490000C70EAB01BC01CE01C1960E946F1B0E9475
:104910001E0B68EE73E00E94B93CBC01CE01859687
:104920000E94C8180E94280BBC01CE014F960E941D
:10493000C8180E94300BBC01CE0101960E94C81815
:10494000BE016F5F7F4FCE0149960E94B716BE0130
:10495000615E7F4FCE0149960E94DF15BE016B5DFF
:104960007F4F0E94DF15BC01CE018B960E94B716C7
:10497000AE014F5C5F4FBE01655D7F4FCE01C796B4
:104980000E941D17BE01695C7F4F82E29AE00E947F
:104990000515CE01C7960E940112CE018B960E948A
:1049A0000112CE0149960E940112CE0101960E9489
:1049B0000112CE014F960E940112CE0185960E94EF
:1049C0000112CE01C1960E94011289E09AE00E9474
:1049D000500B80EF99E00E94500B87ED99E00E9408
:1049E000500B809137068111DFC1109292068091A1
:1049F000090A90910A0A181619063CF080911406CB
:104A000090911506019709F040C381E080930B0651
:104A1000109211071092100744E650E060E070E039
:104A200088EE93E00E94720480910607882309F4BF
:104A3000E8C10E94241DEE960FB6F894DEBF0FBEAB
:104A4000CDBFDF91CF911F910F91FF90EF90DF903D
:104A5000CF90BF90AF909F908F907F906F905F901E
:104A60004F903F902F90089581E08093AD0501CD48
:104A700083E0FBCF85E0F9CF86E0F7CF88E0F5CF84
:104A80008AE0F3CF8CE0F1CF809108028093AC05EF
:104A900028CD80916F008D7F80936F0070CD8091C5
:104AA00070008D7F809370006ACD80916F0095CDEE
:104AB0008091700092CD80911F07811197CD009158
:104AC000B8051091B905F801EE0FFF1FE00FF11FB7
:104AD000DF01AA0FBB1FAE5ABC4F8D919C914AE0DB
:104AE000489F9001499F300D1124809104029091BC
:104AF0000502280F391F3093050220930402DF01BD
:104B0000AA0FBB1FAC5ABC4F8D919C91489FB0011E
:104B1000499F700D11248091010690910206860F25
:104B2000971F9093020680930106EE0FFF1FEA5A2B
:104B3000FC4F60817181469F6001479FD00C11241A
:104B40004091FF0550910006C40ED51ED09200067C
:104B5000C092FF05D12CF12CE22ED82AB12CA12C29
:104B6000B701A601C5010E944202FFEFAF1ABF0ABA
:104B70002BE0A216B104A1F70E945D068091B60554
:104B80009091B70501969093B7058093B605499724
:104B900051F40F5F1F4F1093B9050093B8051092A1
:104BA000B7051092B6058091B8059091B9050697A2
:104BB0000CF41CCD1092B9051092B80517CD0197D1
:104BC00009F08DCD84E090E0909396068093950651
:104BD00088E893E1A0E0B0E08093000290930102A6
:104BE000A0930202B09303028091070781117DC751
:104BF00082E090E09093BB058093BA0570CD10924F
:104C0000BB051092BA058BCD892B09F062C0CE018D
:104C1000C1960E94761A0E941E0B68EE73E00E94F5
:104C2000B93CBC01CE0185960E94C8180E94280B91
:104C3000BC01CE014F960E94C8180E94300BBC01E7
:104C4000CE0101960E94C818BE016F5F7F4FCE0152
:104C500049960E94B716BE01615E7F4FCE0149960C
:104C60000E94DF15BE016B5D7F4F0E94DF15BC0106
:104C7000CE018B960E94B716AE014F5C5F4FBE010E
:104C8000655D7F4FCE01C7960E941D17BE01695C0E
:104C90007F4F82E29AE00E940515CE01C7960E94DE
:104CA0000112CE018B960E940112CE0149960E94FC
:104CB0000112CE0101960E940112CE014F960E9470
:104CC0000112CE0185960E940112CE01C1960E946A
:104CD00001128091950690919606019709F075CE84
:104CE0000E941E0B68EE73E00E94B93CBC01CE012D
:104CF0008B960E94C8180E94280BBC01CE01859695
:104D00000E94C8180E94300BBC01CE0149960E9437
:104D1000C818BE01675E7F4FCE014F960E94B7163E
:104D2000BE016B5D7F4FCE014F960E94DF15BE0125
:104D3000655D7F4F0E94DF15BC01CE01C1960E94C8
:104D4000B716CE0101960E94761AAE014F5C5F4FF6
:104D5000BE016F5F7F4FCE01C7960E941D17BE0137
:104D6000695C7F4F82E29AE00E940515CE01C796EA
:104D70000E940112CE0101960E940112CE01C1963D
:104D80000E940112CE014F960E940112CE01499657
:104D90000E940112CE0185960E940112CE018B96CF
:104DA00012CE1092520611CE0E946B070091380667
:104DB0001091390620913A0630913B06601B710B29
:104DC000820B930B61367A4E8105910508F40FCE64
:104DD00010923706E0919506F0919606EE0FFF1FB0
:104DE000EE52FC4F808191819093960680939506B8
:104DF000880F991FFC01E15FFD4F8081809392062F
:104E0000F6CD0E946B076093380670933906809345
:104E10003A0690933B0680919506909196060196EE
:104E20008730910509F463C09093960680939506A8
:104E300020919506309196068901000F111FF80107
:104E4000E15FFD4F808180939206D9011197FD01AA
:104E5000EE0FFF1FEC55FC4F6081718161157105EC
:104E600009F404C1AB0141505109FA01EE0FFF1FD3
:104E7000EA58FC4F0190F081E02DAE17BF0709F012
:104E8000F5C062307105C1F588E1E8EDF2E0DE01C0
:104E9000119601900D928A95E1F7809157029091B9
:104EA000580283709927892B21F48DE190E09C832F
:104EB0008B8380915502909156020197880F991F1C
:104EC00001E010E00C0F1D1F800F911F2091530275
:104ED00030915402FC01808191818217930764F420
:104EE0008BE090E09093960680939506A4CD109267
:104EF0009606109295069CCF109237065093960610
:104F000040939506452BB9F40E941E0B7C010E942C
:104F1000280B8C010E94300B40914F02509150029F
:104F200060914D0270914E029C0180914B029091D4
:104F30004C020E94FA09809195069091960601977D
:104F4000F9F4E0905702F090580200915502109148
:104F5000560280905302909054020E94380B5C01DC
:104F60000E94400B6C010E94480B9401A501B60100
:104F70000E94FA09609151028DE090E00E94BE1CEF
:104F800080919506909196060297C1F4609159021E
:104F900082E090E00E94BE1C60915B0283E090E0A2
:104FA0000E94BE1C60915D0284E090E00E94BE1CE5
:104FB00060915F0286E090E00E94BE1C80919506A1
:104FC00090919606039731F46091610281E090E040
:104FD0000E94BE1C8091950690919606049731F42C
:104FE000609163028BE090E00E94BE1C8091950668
:104FF00090919606059749F460916502809193021D
:10500000681B8CE090E00E94BE1C809195069091F8
:105010009606069761F4609167028EE090E00E9428
:10502000BE1C609169028FE090E00E94BE1C0E944D
:105030001E0B5C010E94280B082F0E94300BD82EFB
:105040000E94380BF82E0E94400B182F0E94480B2C
:10505000382FC50168EE73E00E94B93CE82E2D2D73
:105060004F2D612F832F0E94970DE5CC2431310500
:1050700061F02A5031092230310538F00E94C517FD
:10508000F801E35CFD4F918380838091090A909140
:105090000A0A97FD07C080911406909115060196A3
:1050A00009F0F4C044E650E060E070E088EE93E080
:1050B0000E94720480913706811152C000919506BA
:1050C000109196060E946B0760933806709339061C
:1050D00080933A0690933B06012B09F041C00E9451
:1050E000380BBC01CE0185960E94C8180E94400B67
:1050F000BC01CE014F960E94C8180E94480BBC010B
:10510000CE0101960E94C818BE016F5F7F4FCE018D
:1051100049960E94B716BE01615E7F4FCE01499647
:105120000E94DF15BE016B5D7F4F0E94DF156DE4AD
:1051300074E00E94C915BC0182E29AE00E94A016A8
:10514000CE0149960E940112CE0101960E940112E1
:10515000CE014F960E940112CE0185960E94011247
:105160008091950690919606019709F056C00E948D
:10517000300B90935402809353020E94280B90931B
:105180005602809355020E941E0BBC019093580258
:10519000809357028091510290915202892B09F01D
:1051A000A6C1CE0185960E94C818609155027091E3
:1051B0005602CE014F960E94C8186091530270911A
:1051C0005402CE0101960E94C818BE016F5F7F4F46
:1051D000CE0149960E94B716BE01615E7F4FCE0197
:1051E00049960E94DF15BE016B5D7F4F0E94DF155F
:1051F000BC0182E29AE00E94A016CE0149960E946C
:105200000112CE0101960E940112CE014F960E941A
:105210000112CE0185960E940112E0919506F0914F
:105220009606EE0FFF1FEE52FC4F20813181309326
:105230009606209395062E30310549F481E090E0E2
:105240009093600280935F0280E880938206809151
:10525000370691E08927809337068901000F111FD7
:10526000F801E15FFD4F808180939206A9014351CF
:1052700051094230510550F02A30310539F00E9471
:10528000C517F801E35CFD4F918380838091F0099D
:105290009091F109009709F03BC18091120690911D
:1052A0001306019701F581E080930B061092110718
:1052B0001092100744E650E060E070E088EE93E062
:1052C0000E947204809106078111B3CB0E94221ABA
:1052D00080913706811107C010921F0760E087E0B8
:1052E00090E00E94BE1C8091090690910A060196EA
:1052F00009F017C18091F209882309F412C11092B4
:105300009406809137068823F9F00E946B0700917C
:105310000506109106062091070630910806601BCD
:10532000710B820B930B673971058105910560F054
:105330000E946B076093050670930606809307062C
:10534000909308060E94221A8091D7099091D8095B
:10535000009709F0EAC0809110069091110601971C
:1053600091F511E010930B0610921107109210079F
:1053700044E650E060E070E088EE93E00E94720442
:1053800080910607811155CB0E94C3198091370681
:10539000811119C010931F0761E087E090E00E941F
:1053A000BE1C6091040288E090E00E94BE1C6091E7
:1053B000010689E090E00E94BE1C6091FF058AE032
:1053C00090E00E94BE1C8091030690910406019615
:1053D00009F0B4C08091D909882309F4AFC0809145
:1053E000370610929306882321F10E946B070091E3
:1053F000FB051091FC052091FD053091FE05601B19
:10540000710B820B930B673971058105910508F4C7
:1054100049C00E946B076093FB057093FC05809365
:10542000FD059093FE050E94C319809137068111F6
:1054300039C08091F0099091F10997FD06C08091E3
:10544000120690911306019691F444E650E060E054
:1054500070E088EE93E00E94720481E080930E0277
:1054600061E090E080E00E94BE1C0E94C21C80911E
:10547000D7099091D80997FD06C0809110069091A8
:105480001106019679F444E650E060E070E088EEA1
:1054900093E00E94720410920E0260E090E080E0BF
:1054A0000E94BE1CE0919506F0919606E731F10549
:1054B00008F0C1CA8827E05AF54D8F4F0C940E3D75
:1054C000A22AE12AD62B222C4D2C912C412D1B25D2
:1054D0001B251B25C02CE82CE82CE82C1B251B25A4
:1054E0001B251B251B254D2C912C412D412DCE011B
:1054F00085960E94C8186091530270915402CE01A3
:105500004F960E94C818609155027091560259CE6C
:1055100090930A0680930906181619060CF4C3CE58
:10552000BCCE81E0809394060FCF909304068093C5
:105530000306181619060CF414CF0DCF81E08093E2
:10554000930673CF8091520681112CC00E946B0785
:105550000091D4051091D5052091D6053091D7053D
:10556000601B710B820B930B6333710581059105F1
:1055700008F10E946B076093D4057093D505809362
:10558000D6059093D705CE0101960E94761ABE01EA
:105590006F5F7F4F82E29AE00E940515CE0101966F
:1055A0000E9401120E94380B80FD72C180EC809332
:1055B000820670C162E27AE0CE0101960E94B716BF
:1055C000E6CF809152068111DEC08091F3058111F2
:1055D00011C00E946B0767517C4F8F4F9F4F6093A4
:1055E000EF057093F0058093F1059093F20581E04B
:1055F0008093F3058091E705811144C00E941E0B42
:1056000068EE73E00E94B93CBC01CE0101960E9495
:10561000C8180E94280BBC01CE0149960E94C818E8
:105620000E94300BBC01CE0185960E94C818BE01B5
:105630006B5D7F4FCE014F960E94B716BE01675E2D
:105640007F4FCE014F960E94DF15BE016F5F7F4FE7
:105650000E94DF15BC0181EE95E00E94B71681E043
:105660008093E705CE014F960E940112CE018596E8
:105670000E940112CE0149960E940112CE010196AC
:105680000E94011200915102109152028091D9059D
:10569000811105C00093D80581E08093D9050E944F
:1056A0006B07C090EF05D090F005E090F105F09009
:1056B000F2056C197D098E099F09693E73408105C9
:1056C000910530F48091D8058017110609F44AC07D
:1056D0000E946B076093EF057093F0058093F105CE
:1056E0009093F205012B09F050C00E941E0BBC01E3
:1056F000CE0101960E94C8180E94280BBC01CE0161
:1057000049960E94C8180E94300BBC01CE018596B4
:105710000E94C818BE016B5D7F4FCE014F960E945C
:10572000B716BE01675E7F4FCE014F960E94DF1510
:10573000BE016F5F7F4F0E94DF15BC0181EE95E0D7
:105740000E94A016CE014F960E940112CE018596AE
:105750000E940112CE0149960E940112CE010196CB
:105760000E94011261EE75E0CE0101960E94B7160B
:10577000BE016F5F7F4F82E29AE00E940515CE0165
:1057800001960E94011280E412CF0E941E0BBC0100
:10579000CE0101960E94C8180E94300BBC01CE01B8
:1057A00049960E94C8180E94280BAFCF60915D02F5
:1057B00070915E02CE0185960E94C81860915B02CE
:1057C00070915C02CE014F960E94C81860915902F8
:1057D00070915A02CE0101960E94C818BE016F5FF7
:1057E0007F4FCE0149960E94B716BE01615E7F4F82
:1057F000CE0149960E94DF15BE016B5D7F4F0E946E
:10580000DF156DE474E00E94C915BC0182E29AE0E4
:105810000E94A016CE0149960E940112CE01019667
:105820000E940112CE014F960E940112CE01859670
:105830000E94011280915F0290916002019741F5F0
:1058400080E8B5CE6091610270916202CE01499606
:105850000E9448166DE474E0CE0101960E94C016C5
:10586000BE01675E7F4FCE0101960E94DF156BE49B
:1058700074E00E94C915BC0182E29AE00E94A01661
:10588000CE0101960E940112CE0149960E9401129A
:10589000109282060E94311DCEC88091520681115D
:1058A00024C081E02091630230916402232B09F42B
:1058B00080E00E94C70EAB01BC01CE0101960E94A0
:1058C0006F1BBE016F5F7F4F82E29AE00E94051559
:1058D000CE0101960E9401128091630290916402B0
:1058E000892BD1F480E48093820681E020916302C9
:1058F00030916402232B09F480E00E94C70E1091BE
:10590000820620E030E0A9010E948D3A87FF07C09F
:105910001068109382068FC810928206E6CF1F7718
:10592000F8CF6091650270916602CE0101960E94E7
:10593000C818BE016F5F7F4FCE0149960E94B7160F
:1059400069E474E0CE0149960E94C915BC0182E267
:105950009AE00E94A016CE0149960E940112CE0143
:1059600001960E940112809165029091660297FD56
:1059700003C0109282065FC880E8809382065BC8ED
:105980008091510290915202892B99F462E674E061
:1059900082E29AE00E943E1683E090E09093260215
:1059A000809325028CE090E0909328028093270258
:1059B00042C86BE674E082E29AE00E943E168CE0F8
:1059C00090E0909326028093250283E090E0ECCF54
:1059D0006091570270915802809151029091520249
:1059E000892BF1F5CE0185960E941A186091550217
:1059F00070915602CE014F960E94C81860915302D2
:105A000070915402CE0101960E94C818BE016F5FCA
:105A10007F4FCE0149960E94B716BE01615E7F4F4F
:105A2000CE0149960E94DF15BE016B5D7F4F0E943B
:105A3000DF15BC0182E29AE00E94A016CE014996D1
:105A40000E940112CE0101960E940112CE014F96D2
:105A50000E940112CE0185960E9401120C941B2512
:105A6000CE0185960E941A186091530270915402DB
:105A7000CE014F960E94C81860915502709156024F
:105A8000C1CF6091690270916A02CE014F960E9467
:105A9000C8186091670270916802CE0101960E9459
:105AA000C818BE016F5F7F4FCE0149960E94B7169E
:105AB000BE01615E7F4FCE0149960E94DF1564E70B
:105AC00074E00E94C915BC0182E29AE00E94A0160F
:105AD000CE0149960E940112CE0101960E94011248
